{
  "contractName": "SimpleBank",
  "abi": [
    {
      "constant": true,
      "inputs": [
        {
          "name": "",
          "type": "address"
        }
      ],
      "name": "enrolled",
      "outputs": [
        {
          "name": "",
          "type": "bool"
        }
      ],
      "payable": false,
      "stateMutability": "view",
      "type": "function",
      "signature": "0x10eb0e0e"
    },
    {
      "constant": true,
      "inputs": [],
      "name": "owner",
      "outputs": [
        {
          "name": "",
          "type": "address"
        }
      ],
      "payable": false,
      "stateMutability": "view",
      "type": "function",
      "signature": "0x8da5cb5b"
    },
    {
      "inputs": [],
      "payable": false,
      "stateMutability": "nonpayable",
      "type": "constructor",
      "signature": "constructor"
    },
    {
      "payable": false,
      "stateMutability": "nonpayable",
      "type": "fallback"
    },
    {
      "anonymous": false,
      "inputs": [
        {
          "indexed": false,
          "name": "accountAddress",
          "type": "address"
        }
      ],
      "name": "LogEnrolled",
      "type": "event",
      "signature": "0x990c442e6adb818b8fa7db3cf1023decd07f7b66e5306928c7ed527d974192bb"
    },
    {
      "anonymous": false,
      "inputs": [
        {
          "indexed": false,
          "name": "accountAddress",
          "type": "address"
        },
        {
          "indexed": false,
          "name": "amount",
          "type": "uint256"
        }
      ],
      "name": "LogDepositMade",
      "type": "event",
      "signature": "0xa8126f7572bb1fdeae5b5aa9ec126438b91f658a07873f009d041ae690f3a193"
    },
    {
      "anonymous": false,
      "inputs": [
        {
          "indexed": false,
          "name": "accountAddress",
          "type": "address"
        },
        {
          "indexed": false,
          "name": "withdrawAmount",
          "type": "uint256"
        },
        {
          "indexed": false,
          "name": "newBalance",
          "type": "uint256"
        }
      ],
      "name": "LogWithdrawal",
      "type": "event",
      "signature": "0xf9226daf630542048a23086c6af599511aac100ec8f532793cc9697d061bed7e"
    },
    {
      "constant": true,
      "inputs": [],
      "name": "balance",
      "outputs": [
        {
          "name": "",
          "type": "uint256"
        }
      ],
      "payable": false,
      "stateMutability": "view",
      "type": "function",
      "signature": "0xb69ef8a8"
    },
    {
      "constant": false,
      "inputs": [],
      "name": "enroll",
      "outputs": [
        {
          "name": "",
          "type": "bool"
        }
      ],
      "payable": false,
      "stateMutability": "nonpayable",
      "type": "function",
      "signature": "0xe65f2a7e"
    },
    {
      "constant": false,
      "inputs": [],
      "name": "deposit",
      "outputs": [
        {
          "name": "",
          "type": "uint256"
        }
      ],
      "payable": true,
      "stateMutability": "payable",
      "type": "function",
      "signature": "0xd0e30db0"
    },
    {
      "constant": false,
      "inputs": [
        {
          "name": "withdrawAmount",
          "type": "uint256"
        }
      ],
      "name": "withdraw",
      "outputs": [
        {
          "name": "newBalance",
          "type": "uint256"
        }
      ],
      "payable": true,
      "stateMutability": "payable",
      "type": "function",
      "signature": "0x2e1a7d4d"
    }
  ],
  "bytecode": "0x608060405234801561001057600080fd5b5033600260006101000a81548173ffffffffffffffffffffffffffffffffffffffff021916908373ffffffffffffffffffffffffffffffffffffffff16021790555061065d806100616000396000f3fe608060405260043610610078576000357c0100000000000000000000000000000000000000000000000000000000900463ffffffff16806310eb0e0e1461008a5780632e1a7d4d146100f35780638da5cb5b14610135578063b69ef8a81461018c578063d0e30db0146101b7578063e65f2a7e146101d5575b34801561008457600080fd5b50600080fd5b34801561009657600080fd5b506100d9600480360360208110156100ad57600080fd5b81019080803573ffffffffffffffffffffffffffffffffffffffff169060200190929190505050610204565b604051808215151515815260200191505060405180910390f35b61011f6004803603602081101561010957600080fd5b8101908080359060200190929190505050610224565b6040518082815260200191505060405180910390f35b34801561014157600080fd5b5061014a6103ba565b604051808273ffffffffffffffffffffffffffffffffffffffff1673ffffffffffffffffffffffffffffffffffffffff16815260200191505060405180910390f35b34801561019857600080fd5b506101a16103e0565b6040518082815260200191505060405180910390f35b6101bf610426565b6040518082815260200191505060405180910390f35b3480156101e157600080fd5b506101ea610523565b604051808215151515815260200191505060405180910390f35b60016020528060005260406000206000915054906101000a900460ff1681565b60008060003373ffffffffffffffffffffffffffffffffffffffff1673ffffffffffffffffffffffffffffffffffffffff168152602001908152602001600020548211151561037457816000803373ffffffffffffffffffffffffffffffffffffffff1673ffffffffffffffffffffffffffffffffffffffff168152602001908152602001600020600082825403925050819055503373ffffffffffffffffffffffffffffffffffffffff166108fc839081150290604051600060405180830381858888f193505050501580156102ff573d6000803e3d6000fd5b507ff9226daf630542048a23086c6af599511aac100ec8f532793cc9697d061bed7e338383604051808473ffffffffffffffffffffffffffffffffffffffff1673ffffffffffffffffffffffffffffffffffffffff168152602001838152602001828152602001935050505060405180910390a15b6000803373ffffffffffffffffffffffffffffffffffffffff1673ffffffffffffffffffffffffffffffffffffffff168152602001908152602001600020549050919050565b600260009054906101000a900473ffffffffffffffffffffffffffffffffffffffff1681565b60008060003373ffffffffffffffffffffffffffffffffffffffff1673ffffffffffffffffffffffffffffffffffffffff16815260200190815260200160002054905090565b6000346000803373ffffffffffffffffffffffffffffffffffffffff1673ffffffffffffffffffffffffffffffffffffffff168152602001908152602001600020600082825401925050819055507fa8126f7572bb1fdeae5b5aa9ec126438b91f658a07873f009d041ae690f3a1933334604051808373ffffffffffffffffffffffffffffffffffffffff1673ffffffffffffffffffffffffffffffffffffffff1681526020018281526020019250505060405180910390a16000803373ffffffffffffffffffffffffffffffffffffffff1673ffffffffffffffffffffffffffffffffffffffff16815260200190815260200160002054905090565b600060018060003373ffffffffffffffffffffffffffffffffffffffff1673ffffffffffffffffffffffffffffffffffffffff16815260200190815260200160002060006101000a81548160ff0219169083151502179055507f990c442e6adb818b8fa7db3cf1023decd07f7b66e5306928c7ed527d974192bb33604051808273ffffffffffffffffffffffffffffffffffffffff1673ffffffffffffffffffffffffffffffffffffffff16815260200191505060405180910390a1600160003373ffffffffffffffffffffffffffffffffffffffff1673ffffffffffffffffffffffffffffffffffffffff16815260200190815260200160002060009054906101000a900460ff1690509056fea165627a7a72305820c704c344465e71233378a3b64cb6714e831615cb34b9e995eb3d7ceebd7770180029",
  "source": "pragma solidity ^0.5.0;\ncontract SimpleBank {\n    \n    mapping (address => uint) private balances;\n    mapping (address => bool) public enrolled;\n    address public owner;\n    \n    event LogEnrolled(address accountAddress);\n    event LogDepositMade(address accountAddress, uint amount);\n    event LogWithdrawal(address accountAddress, uint withdrawAmount, uint newBalance);\n\n    constructor() public {\n        owner = msg.sender;\n    }\n\n    function balance() public view returns (uint) {\n        return balances[msg.sender];\n    }\n\n    function enroll() public returns (bool){\n        enrolled[msg.sender] = true;\n        emit LogEnrolled(msg.sender);\n        return enrolled[msg.sender];\n\n    }\n\n    function deposit() public payable returns (uint) {\n            balances[msg.sender] += msg.value;\n    emit LogDepositMade(msg.sender, msg.value);\n    return balances[msg.sender];\n    }\n\n    function withdraw(uint withdrawAmount) public payable returns (uint newBalance) {\n            if (withdrawAmount <= balances[msg.sender]) {\n            balances[msg.sender] -= withdrawAmount;\n            msg.sender.transfer(withdrawAmount);\n            emit LogWithdrawal(msg.sender, withdrawAmount, newBalance);\n        }\n        return balances[msg.sender];\n}\n\n    function() external {\n        revert();\n    }\n}\n",
  "sourcePath": "/home/rafael/Projetos/simple-bank-reactionhashs/contracts/SimpleBank.sol",
  "compiler": {
    "name": "solc",
    "version": "0.5.0+commit.1d4f565a.Emscripten.clang"
  },
  "schemaVersion": "3.0.0",
  "updatedAt": "2019-01-16T12:20:30.986Z",
  "devdoc": {
    "methods": {}
  },
  "userdoc": {
    "methods": {}
  }
}